:030000007fffff80
:030001007fa736a0
:030002007e9d558b
:030003007ce3cecd
:030004007a7d04fe
:03000500776c4ec7
:0300060073b5ebe4
:030007006f5f0226
:030008006a6d9886
:0300090064e88820
:03000a005ed77c42
:03000b005842dd7b
:03000c005133cca1
:03000d0049b415de
:03000e0041ce1ec2
:03000f00398cdd4c
:0300100030fbc5fd
:030011002826b9e5
:030012001f19f9ba
:0300130015e214df
:030014000c8bd37f
:0300150003242b96
:03001600f9b8270f
:03001700f054d9c9
:03001800e70748af
:03001900dddc5bd0
:03001a00d4e0cb64
:03001b00cc210ee7
:03001c00c3a9462f
:03001d00bb85336d
:03001e00b3c0214b
:03001f00ac64d6f8
:03002000a57d8734
:030021009f13c961
:0300220099308092
:0300230093dbd795
:030024008f1d35f8
:030025008afb2e25
:03002600877b7d58
:0300270084a2fdb3
:030028008275a23c
:0300290080f66fef
:03002a00802779b3
:03002b008009df6a
:03002c00809dcaea
:03002d0081e26d00
:03002e0083d60571
:03002f008675ddf6
:0300300089be5234
:030031008daad4c1
:030032009235f410
:0300330097596278
:030034009d0dff20
:03003500a34be0fa
:03003600aa0a5cb7
:03003700b14018bd
:03003800b8e31416
:03003900c0e8b765
:03003a00c945e0d5
:03003b00d1eef60d
:03003c00dad7f41c
:03003d00e3f47e6b
:03003e00ed37f0ab
:03003f00f69570c3
:00000001FF
